{
  "contractName": "KingDappContract",
  "abi": [
    {
      "constant": true,
      "inputs": [],
      "name": "King",
      "outputs": [
        {
          "name": "",
          "type": "address"
        }
      ],
      "payable": false,
      "stateMutability": "view",
      "type": "function"
    },
    {
      "constant": true,
      "inputs": [],
      "name": "kingRansom",
      "outputs": [
        {
          "name": "",
          "type": "uint256"
        }
      ],
      "payable": false,
      "stateMutability": "view",
      "type": "function"
    },
    {
      "inputs": [],
      "payable": true,
      "stateMutability": "payable",
      "type": "constructor"
    },
    {
      "payable": true,
      "stateMutability": "payable",
      "type": "fallback"
    },
    {
      "anonymous": false,
      "inputs": [
        {
          "indexed": true,
          "name": "_newKing",
          "type": "address"
        },
        {
          "indexed": false,
          "name": "_kingRansom",
          "type": "uint256"
        }
      ],
      "name": "Coronation",
      "type": "event"
    },
    {
      "constant": false,
      "inputs": [],
      "name": "becomeKing",
      "outputs": [],
      "payable": true,
      "stateMutability": "payable",
      "type": "function"
    }
  ],
  "bytecode": "0x6080604052336000806101000a81548173ffffffffffffffffffffffffffffffffffffffff021916908373ffffffffffffffffffffffffffffffffffffffff160217905550346001819055506102da8061005a6000396000f3fe6080604052600436106100345760003560e01c8063079ce627146100395780633d6d87c2146100905780636708cc63146100bb575b600080fd5b34801561004557600080fd5b5061004e6100c5565b604051808273ffffffffffffffffffffffffffffffffffffffff1673ffffffffffffffffffffffffffffffffffffffff16815260200191505060405180910390f35b34801561009c57600080fd5b506100a56100ea565b6040518082815260200191505060405180910390f35b6100c36100f0565b005b6000809054906101000a900473ffffffffffffffffffffffffffffffffffffffff1681565b60015481565b61010d67016345785d8a000060015461022690919063ffffffff16565b34101561011957600080fd5b60008060009054906101000a900473ffffffffffffffffffffffffffffffffffffffff16905060006001549050336000806101000a81548173ffffffffffffffffffffffffffffffffffffffff021916908373ffffffffffffffffffffffffffffffffffffffff160217905550346001819055508173ffffffffffffffffffffffffffffffffffffffff166108fc829081150290604051600060405180830381858888f193505050501580156101d3573d6000803e3d6000fd5b503373ffffffffffffffffffffffffffffffffffffffff167f92d564ea1b213acf6e4a9eee13d12f19b1086cd80a24b0893841252162a6fa6b346040518082815260200191505060405180910390a25050565b6000808284019050838110156102a4576040517f08c379a000000000000000000000000000000000000000000000000000000000815260040180806020018281038252601b8152602001807f536166654d6174683a206164646974696f6e206f766572666c6f77000000000081525060200191505060405180910390fd5b809150509291505056fea165627a7a72305820a24b09d3ccdc4b7a86b3ea73f974db89020c25d4999afd2a1d1fbfce3a67ebf20029",
  "source": "pragma solidity ^0.5.0;\nimport \"@openzeppelin/contracts/math/SafeMath.sol\";\n\ncontract KingDappContract {\n    using SafeMath for uint;\n\n    address payable public King;\n    uint256 public kingRansom;\n\n    constructor() public payable {\n        King = msg.sender;\n        kingRansom = msg.value;\n    }\n\n    event Coronation(address indexed _newKing, uint256 _kingRansom);\n\n    function() external payable {\n        revert();\n    }\n\n    function becomeKing() public payable {\n        require(msg.value >= (kingRansom.add(0.1 ether)));\n        address payable oldKing = King;\n        uint256 oldRansom = kingRansom;\n        King = msg.sender;\n        kingRansom = msg.value;\n        oldKing.transfer(oldRansom);\n        emit Coronation(msg.sender, msg.value);\n    }\n}",
  "sourcePath": "/Users/justsomeguy/Documents/projects/king-of-the-dapp/src/contracts/KingDappContract.sol",
  "compiler": {
    "name": "solc",
    "version": "0.5.8+commit.23d335f2.Emscripten.clang"
  },
  "schemaVersion": "3.0.16",
  "updatedAt": "2019-11-30T23:16:47.928Z",
  "devdoc": {
    "methods": {}
  },
  "userdoc": {
    "methods": {}
  }
}